:100000000C9450000C945A000C945A000C945A0012
:100010000C945A000C945A000C94D0000C945A0082
:100020000C945A000C945A000C945A000C945A00E8
:100030000C945A000C945A000C945A000C945A00D8
:100040000C945A000C945A000C945A000C945A00C8
:100050000C945A000C945A000C945A000C945A00B8
:100060000C945A000C945A000C945A000C945A00A8
:100070000C945A000C945A000C945A000C945A0098
:100080000C945A000C945A000C945A000C945A0088
:100090000C945A000C945A000C945A000C945A0078
:1000A00011241FBECFEFCDBFDFE3DEBF0E94DF0014
:1000B0000C9426010C9400008091860A80FFFCCFEE
:1000C00081E08093860A0895EF92FF920F931F9329
:1000D000CF938C0110928A0A10928B0A8CEE92E0D8
:1000E00080938C0A90938D0A8BE090E08093380A7D
:1000F0009093390AC0E10E945C00C150E1F7109270
:10010000380A1092390A0E945C000E945C000E942A
:100110005C000E945C000E945C000E945C000E94E7
:100120005C000E945C008BE0E82EF12CE092380A23
:10013000F092390A0E945C001092380A1092390A33
:100140000E945C00EC2FE695E695E695E00FF12F16
:10015000F11D808190E02C2F277002C09595879526
:100160002A95E2F780FF04C00E945C000E945C00B8
:10017000CF5FC032D9F68BE090E08093380A90933D
:10018000390A0E945C001092380A1092390A84E001
:1001900080930504CF911F910F91FF90EF900895E8
:1001A0001F920F920FB60F9211248F9382EC8093BF
:1001B00009048F910F900FBE0F901F90189588ED36
:1001C00025E130E084BF2093610081E08093000A44
:1001D00093E19093010A22E230E02093260A3093C3
:1001E000270A8093800A88EE93E080938C0A90938C
:1001F0008D0A88E08093010484E08093010489E003
:1002000080931604809317048093110415E0D4E0C2
:100210007894109350008895F894C4E10E945C0093
:10022000C150E1F782B1809586FF09C084E592E470
:100230000E9464000E945C00D0930604E9CF87FD11
:10024000F5CF81FFF7CF80E592E4F2CFF894FFCFAE
:08025000826D7122826DBF4036
:00000001FF
