:100000000C943E000C9448000C9448000C94BE00E4
:100010000C9448000C9448000C9448000C94480040
:100020000C9448000C9448000C9448000C94480030
:100030000C9448000C9448000C9448000C94480020
:100040000C9448000C9448000C9448000C94480010
:100050000C9448000C9448000C9448000C94480000
:100060000C9448000C9448000C9448000C944800F0
:100070000C9448000C9448000C94480011241FBEB6
:10008000CFEFCDBFDFE3DEBF0E94CD000C941301A4
:100090000C9400008091460A80FFFCCF81E08093A1
:1000A000460A0895EF92FF920F931F93CF938C010E
:1000B00010924A0A10924B0A8CEE92E080934C0AFE
:1000C00090934D0A8BE090E08093380A9093390A20
:1000D000C0E10E944A00C150E1F71092380A109224
:1000E000390A0E944A000E944A000E944A000E9467
:1000F0004A000E944A000E944A000E944A000E9450
:100100004A008BE0E82EF12CE092380AF092390A8E
:100110000E944A001092380A1092390A0E944A003E
:10012000EC2FE695E695E695E00FF12FF11D808125
:1001300090E02C2F277002C0959587952A95E2F7BD
:1001400080FF04C00E944A000E944A00CF5FC03274
:10015000D9F68BE090E08093380A9093390A0E9498
:100160004A001092380A1092390A84E080930504FC
:10017000CF911F910F91FF90EF9008951F920F92D2
:100180000FB60F9211248F9382EC809309048F9104
:100190000F900FBE0F901F90189588ED25E130E06D
:1001A00084BF2093610081E08093000A93E19093E3
:1001B000010A22E230E02093260A3093270A809336
:1001C000400A28EE33E020934C0A30934D0A809386
:1001D000210484E08093010489E0809316048093D5
:1001E00017048093110415E0D4E078941093500024
:1001F0008895F894C4E10E944A00C150E1F782B1A9
:10020000809586FF09C08EE292E80E9452000E940B
:100210004A00D0930604E9CF87FDF5CF81FFF7CFE1
:0A0220008AE292E8F2CFF894FFCFD3
:08022A00826D7122826DBF405C
:00000001FF
