:1000000019C020C01FC080C01DC01CC01BC01AC0AA
:1000100019C018C017C016C015C014C013C012C034
:1000200011C010C00FC00EC00DC00CC00BC00AC064
:1000300009C008C011241FBECFEFCDBFDFE3DEBF74
:1000400072D0D1C0DDCF8091460A80FFFCCF81E025
:100050008093460A0895EF92FF920F931F93CF93D8
:10006000DF938C01D62FE42EF22E8BE090E080936C
:10007000380A9093390AC0E0E6DFCF5FEC12FCCF7C
:100080001092380A1092390AC0E0DDDFCF5FFC120F
:10009000FCCFC0E08BE0E82EF12CCD1315C08BE037
:1000A00090E08093380A9093390ACDDF1092380A95
:1000B0001092390A84E080930504DF91CF911F915B
:1000C0000F91FF90EF900895E092380AF092390A6C
:1000D000BADF1092380A1092390AB5DFEC2FE69594
:1000E000E695E695E00FF12FF11D808190E02C2F31
:1000F000277002C0959587952A95E2F780FF02C088
:10010000A2DFA1DFCF5FC9CF1F920F920FB60F9270
:1001100011248F9382EC809309048F910F900FBE6E
:100120000F901F90189588ED25E130E084BF209353
:10013000610081E08093000A93E19093010A22E23A
:1001400030E02093260A3093270A8093400A88EEF5
:1001500093E080934C0A90934D0A88E080930104C9
:1001600084E08093010489E080931604809317044F
:1001700080931104D5E086E3E82E82E0F82E0CEEA1
:1001800012E07894D09350008895F894C4E15BDF36
:10019000C150E9F782B1809586FF13C010924A0AD8
:1001A00010924B0A00934C0A10934D0A28E040E14C
:1001B00060E28FEE91E84FDF46DF84E08093060433
:1001C000E0CF87FDEBCF81FFF7CF10924A0A109264
:1001D0004B0AE0924C0AF0924D0A24E048E068E2B3
:0A01E0008AEE91E8E8CFF894FFCF13
:0901EA002C52092F26826DBF4042
:00000001FF
